{
  "contractName": "Faucet",
  "abi": [
    {
      "inputs": [],
      "name": "numOfFunders",
      "outputs": [
        {
          "internalType": "uint256",
          "name": "",
          "type": "uint256"
        }
      ],
      "stateMutability": "view",
      "type": "function",
      "constant": true
    },
    {
      "inputs": [],
      "name": "owner",
      "outputs": [
        {
          "internalType": "address",
          "name": "",
          "type": "address"
        }
      ],
      "stateMutability": "view",
      "type": "function",
      "constant": true
    },
    {
      "inputs": [],
      "name": "test5",
      "outputs": [
        {
          "internalType": "uint256",
          "name": "",
          "type": "uint256"
        }
      ],
      "stateMutability": "pure",
      "type": "function",
      "constant": true
    },
    {
      "inputs": [],
      "name": "testNum",
      "outputs": [
        {
          "internalType": "uint256",
          "name": "",
          "type": "uint256"
        }
      ],
      "stateMutability": "view",
      "type": "function",
      "constant": true
    },
    {
      "stateMutability": "payable",
      "type": "receive",
      "payable": true
    },
    {
      "inputs": [],
      "name": "emitLog",
      "outputs": [
        {
          "internalType": "bytes32",
          "name": "",
          "type": "bytes32"
        }
      ],
      "stateMutability": "pure",
      "type": "function",
      "constant": true
    },
    {
      "inputs": [],
      "name": "addFunds",
      "outputs": [],
      "stateMutability": "payable",
      "type": "function",
      "payable": true
    },
    {
      "inputs": [
        {
          "internalType": "uint256",
          "name": "withdrawAmount",
          "type": "uint256"
        }
      ],
      "name": "withdraw",
      "outputs": [],
      "stateMutability": "nonpayable",
      "type": "function"
    },
    {
      "inputs": [],
      "name": "getAllFunders",
      "outputs": [
        {
          "internalType": "address[]",
          "name": "",
          "type": "address[]"
        }
      ],
      "stateMutability": "view",
      "type": "function",
      "constant": true
    },
    {
      "inputs": [
        {
          "internalType": "uint8",
          "name": "index",
          "type": "uint8"
        }
      ],
      "name": "getFunderAtIndex",
      "outputs": [
        {
          "internalType": "address",
          "name": "",
          "type": "address"
        }
      ],
      "stateMutability": "view",
      "type": "function",
      "constant": true
    }
  ],
  "bytecode": "0x608060405234801561001057600080fd5b50336000806101000a81548173ffffffffffffffffffffffffffffffffffffffff021916908373ffffffffffffffffffffffffffffffffffffffff1602179055506103e860018190555061098b806100696000396000f3fe60806040526004361061008a5760003560e01c80638da5cb5b116100595780638da5cb5b14610152578063a26759cb1461017d578063ae28f1ed14610187578063af7f2c9b146101b2578063f42c13bf146101dd57610091565b80630a93cf33146100965780631ad7be82146100d35780632e1a7d4d146100fe5780636fbbb55d1461012757610091565b3661009157005b600080fd5b3480156100a257600080fd5b506100bd60048036038101906100b891906105b3565b610208565b6040516100ca9190610621565b60405180910390f35b3480156100df57600080fd5b506100e8610248565b6040516100f59190610655565b60405180910390f35b34801561010a57600080fd5b506101256004803603810190610120919061069c565b61025a565b005b34801561013357600080fd5b5061013c6102f1565b6040516101499190610787565b60405180910390f35b34801561015e57600080fd5b506101676103eb565b6040516101749190610621565b60405180910390f35b61018561040f565b005b34801561019357600080fd5b5061019c610538565b6040516101a99190610655565b60405180910390f35b3480156101be57600080fd5b506101c761053e565b6040516101d49190610655565b60405180910390f35b3480156101e957600080fd5b506101f2610544565b6040516101ff91906107c2565b60405180910390f35b6000600460008360ff16815260200190815260200160002060009054906101000a900473ffffffffffffffffffffffffffffffffffffffff169050919050565b600061025261056c565b50600a905090565b8067016345785d8a00008111156102a6576040517f08c379a000000000000000000000000000000000000000000000000000000000815260040161029d90610860565b60405180910390fd5b3373ffffffffffffffffffffffffffffffffffffffff166108fc839081150290604051600060405180830381858888f193505050501580156102ec573d6000803e3d6000fd5b505050565b6060600060025467ffffffffffffffff81111561031157610310610880565b5b60405190808252806020026020018201604052801561033f5781602001602082028036833780820191505090505b50905060005b6002548110156103e3576004600082815260200190815260200160002060009054906101000a900473ffffffffffffffffffffffffffffffffffffffff16828281518110610396576103956108af565b5b602002602001019073ffffffffffffffffffffffffffffffffffffffff16908173ffffffffffffffffffffffffffffffffffffffff168152505080806103db9061090d565b915050610345565b508091505090565b60008054906101000a900473ffffffffffffffffffffffffffffffffffffffff1681565b600033905061041c61056c565b50600360008273ffffffffffffffffffffffffffffffffffffffff1673ffffffffffffffffffffffffffffffffffffffff16815260200190815260200160002060009054906101000a900460ff16610535576000600260008154809291906104839061090d565b9190505590506001600360008473ffffffffffffffffffffffffffffffffffffffff1673ffffffffffffffffffffffffffffffffffffffff16815260200190815260200160002060006101000a81548160ff021916908315150217905550816004600083815260200190815260200160002060006101000a81548173ffffffffffffffffffffffffffffffffffffffff021916908373ffffffffffffffffffffffffffffffffffffffff160217905550505b50565b60015481565b60025481565b60007f48656c6c6f20576f726c64000000000000000000000000000000000000000000905090565b60006064905090565b600080fd5b600060ff82169050919050565b6105908161057a565b811461059b57600080fd5b50565b6000813590506105ad81610587565b92915050565b6000602082840312156105c9576105c8610575565b5b60006105d78482850161059e565b91505092915050565b600073ffffffffffffffffffffffffffffffffffffffff82169050919050565b600061060b826105e0565b9050919050565b61061b81610600565b82525050565b60006020820190506106366000830184610612565b92915050565b6000819050919050565b61064f8161063c565b82525050565b600060208201905061066a6000830184610646565b92915050565b6106798161063c565b811461068457600080fd5b50565b60008135905061069681610670565b92915050565b6000602082840312156106b2576106b1610575565b5b60006106c084828501610687565b91505092915050565b600081519050919050565b600082825260208201905092915050565b6000819050602082019050919050565b6106fe81610600565b82525050565b600061071083836106f5565b60208301905092915050565b6000602082019050919050565b6000610734826106c9565b61073e81856106d4565b9350610749836106e5565b8060005b8381101561077a5781516107618882610704565b975061076c8361071c565b92505060018101905061074d565b5085935050505092915050565b600060208201905081810360008301526107a18184610729565b905092915050565b6000819050919050565b6107bc816107a9565b82525050565b60006020820190506107d760008301846107b3565b92915050565b600082825260208201905092915050565b7f43616e6e6f74207769746864726177206d6f7265207468616e20302e3120657460008201527f6865720000000000000000000000000000000000000000000000000000000000602082015250565b600061084a6023836107dd565b9150610855826107ee565b604082019050919050565b600060208201905081810360008301526108798161083d565b9050919050565b7f4e487b7100000000000000000000000000000000000000000000000000000000600052604160045260246000fd5b7f4e487b7100000000000000000000000000000000000000000000000000000000600052603260045260246000fd5b7f4e487b7100000000000000000000000000000000000000000000000000000000600052601160045260246000fd5b60006109188261063c565b91507fffffffffffffffffffffffffffffffffffffffffffffffffffffffffffffffff820361094a576109496108de565b5b60018201905091905056fea2646970667358221220b902076501c01a9d4c1d53c21d0c72c4068320c839c4a80b6332fa679fbb274564736f6c634300080d0033",
  "immutableReferences": {},
  "source": "\n// SPDX-License-Identifier: MIT\npragma solidity >=0.4.22 <0.9.0;\nimport \"./Owned.sol\";\nimport \"./Logger.sol\";\nimport \"./IFaucet.sol\";\n\ncontract Faucet is Owned, Logger, IFaucet {\n  uint public numOfFunders;\n\n  mapping(address => bool) private funders;\n  mapping(uint => address) private lutFunders;\n\n  modifier limitWithdraw(uint withdrawAmount) {\n    require(\n      withdrawAmount <= 100000000000000000,\n      \"Cannot withdraw more than 0.1 ether\"\n    );\n    _;\n  }\n\n  receive() external payable {}\n\n  function emitLog() public override pure returns(bytes32) {\n    return \"Hello World\";\n  }\n\n  function addFunds() override external payable {\n    address funder = msg.sender;\n    test3();\n\n    if (!funders[funder]) {\n      uint index = numOfFunders++;\n      funders[funder] = true;\n      lutFunders[index] = funder;\n    }\n  }\n\n \n\n  function withdraw(uint withdrawAmount) override external limitWithdraw(withdrawAmount) {\n    payable(msg.sender).transfer(withdrawAmount);\n  }\n\n  function getAllFunders() external view returns (address[] memory) {\n    address[] memory _funders = new address[](numOfFunders);\n\n    for (uint i = 0; i < numOfFunders; i++) {\n      _funders[i] = lutFunders[i];\n    }\n\n    return _funders;\n  }\n\n  function getFunderAtIndex(uint8 index) external view returns(address) {\n    return lutFunders[index];\n  }\n}",
  "sourcePath": "/home/itsvek03/Projects/WEB3_Projects/DonateWeb3/contracts/FaucetContract.sol",
  "compiler": {
    "name": "solc",
    "version": "0.8.13+commit.abaa5c0e.Emscripten.clang"
  },
  "schemaVersion": "3.4.4",
  "updatedAt": "2022-04-09T06:06:06.158Z",
  "networkType": "ethereum",
  "devdoc": {
    "kind": "dev",
    "methods": {},
    "version": 1
  },
  "userdoc": {
    "kind": "user",
    "methods": {},
    "version": 1
  }
}